{
  "_format": "hh-sol-artifact-1",
  "contractName": "TokenFactory",
  "sourceName": "contracts/TokenFactory.sol",
  "abi": [
    {
      "anonymous": false,
      "inputs": [
        {
          "indexed": true,
          "internalType": "address",
          "name": "User",
          "type": "address"
        },
        {
          "indexed": true,
          "internalType": "address",
          "name": "Token",
          "type": "address"
        }
      ],
      "name": "UserRegistred",
      "type": "event"
    },
    {
      "inputs": [],
      "name": "checkUserLoggedIn",
      "outputs": [
        {
          "internalType": "bool",
          "name": "",
          "type": "bool"
        }
      ],
      "stateMutability": "view",
      "type": "function"
    },
    {
      "inputs": [
        {
          "internalType": "address",
          "name": "userAddress",
          "type": "address"
        }
      ],
      "name": "getTokenAddress",
      "outputs": [
        {
          "internalType": "address",
          "name": "",
          "type": "address"
        }
      ],
      "stateMutability": "view",
      "type": "function"
    },
    {
      "inputs": [],
      "name": "getTokenBalance",
      "outputs": [
        {
          "internalType": "uint256",
          "name": "",
          "type": "uint256"
        }
      ],
      "stateMutability": "view",
      "type": "function"
    },
    {
      "inputs": [],
      "name": "login",
      "outputs": [
        {
          "internalType": "bool",
          "name": "",
          "type": "bool"
        }
      ],
      "stateMutability": "nonpayable",
      "type": "function"
    },
    {
      "inputs": [],
      "name": "logout",
      "outputs": [],
      "stateMutability": "nonpayable",
      "type": "function"
    },
    {
      "inputs": [
        {
          "internalType": "string",
          "name": "_n",
          "type": "string"
        },
        {
          "internalType": "string",
          "name": "_s",
          "type": "string"
        }
      ],
      "name": "register",
      "outputs": [],
      "stateMutability": "nonpayable",
      "type": "function"
    }
  ],
  "bytecode": "0x608060405234801561001057600080fd5b5061318a806100206000396000f3fe60806040523480156200001157600080fd5b50600436106200006a5760003560e01c80631f3c99c3146200006f57806334297cab146200007b5780633ffbd47f146200009d57806382b2e25714620000bd578063b34e97e814620000df578063b8d7b6691462000101575b600080fd5b6200007962000137565b005b6200008562000276565b60405162000094919062000b8a565b60405180910390f35b620000bb6004803603810190620000b5919062000d1d565b620002ca565b005b620000c7620005e1565b604051620000d6919062000dbd565b60405180910390f35b620000e962000705565b604051620000f8919062000b8a565b60405180910390f35b6200011f600480360381019062000119919062000e3f565b620007f5565b6040516200012e919062000e82565b60405180910390f35b600460003373ffffffffffffffffffffffffffffffffffffffff1673ffffffffffffffffffffffffffffffffffffffff16815260200190815260200160002060009054906101000a900460ff168015620001da5750600860003373ffffffffffffffffffffffffffffffffffffffff1673ffffffffffffffffffffffffffffffffffffffff16815260200190815260200160002060009054906101000a900460ff165b6200021c576040517f08c379a0000000000000000000000000000000000000000000000000000000008152600401620002139062000f00565b60405180910390fd5b6000600860003373ffffffffffffffffffffffffffffffffffffffff1673ffffffffffffffffffffffffffffffffffffffff16815260200190815260200160002060006101000a81548160ff021916908315150217905550565b6000600860003373ffffffffffffffffffffffffffffffffffffffff1673ffffffffffffffffffffffffffffffffffffffff16815260200190815260200160002060009054906101000a900460ff16905090565b60001515600460003373ffffffffffffffffffffffffffffffffffffffff1673ffffffffffffffffffffffffffffffffffffffff16815260200190815260200160002060009054906101000a900460ff1615151462000360576040517f08c379a0000000000000000000000000000000000000000000000000000000008152600401620003579062000f72565b60405180910390fd5b600015156005836040516200037691906200100d565b908152602001604051809103902060009054906101000a900460ff16151514620003d7576040517f08c379a0000000000000000000000000000000000000000000000000000000008152600401620003ce9062001076565b60405180910390fd5b60001515600682604051620003ed91906200100d565b908152602001604051809103902060009054906101000a900460ff161515146200044e576040517f08c379a00000000000000000000000000000000000000000000000000000000081526004016200044590620010e8565b60405180910390fd5b6200045a8282620008ed565b6001600460003373ffffffffffffffffffffffffffffffffffffffff1673ffffffffffffffffffffffffffffffffffffffff16815260200190815260200160002060006101000a81548160ff0219169083151502179055506001600583604051620004c691906200100d565b908152602001604051809103902060006101000a81548160ff0219169083151502179055506001600682604051620004ff91906200100d565b908152602001604051809103902060006101000a81548160ff021916908315150217905550600260003373ffffffffffffffffffffffffffffffffffffffff1673ffffffffffffffffffffffffffffffffffffffff16815260200190815260200160002060009054906101000a900473ffffffffffffffffffffffffffffffffffffffff1673ffffffffffffffffffffffffffffffffffffffff163373ffffffffffffffffffffffffffffffffffffffff167f768b1ae8c29ba4f506c0ae218e91db9830c281ed8fcf078ff6eb1258dbfe1a9c60405160405180910390a35050565b600080620005ef33620007f5565b9050600760008273ffffffffffffffffffffffffffffffffffffffff1673ffffffffffffffffffffffffffffffffffffffff16815260200190815260200160002060009054906101000a900460ff1662000680576040517f08c379a000000000000000000000000000000000000000000000000000000000815260040162000677906200115a565b60405180910390fd5b8073ffffffffffffffffffffffffffffffffffffffff166370a08231336040518263ffffffff1660e01b8152600401620006bb919062000e82565b602060405180830381865afa158015620006d9573d6000803e3d6000fd5b505050506040513d601f19601f82011682018060405250810190620006ff9190620011ad565b91505090565b6000600460003373ffffffffffffffffffffffffffffffffffffffff1673ffffffffffffffffffffffffffffffffffffffff16815260200190815260200160002060009054906101000a900460ff1662000796576040517f08c379a00000000000000000000000000000000000000000000000000000000081526004016200078d906200122f565b60405180910390fd5b6001600860003373ffffffffffffffffffffffffffffffffffffffff1673ffffffffffffffffffffffffffffffffffffffff16815260200190815260200160002060006101000a81548160ff0219169083151502179055506001905090565b6000600460003373ffffffffffffffffffffffffffffffffffffffff1673ffffffffffffffffffffffffffffffffffffffff16815260200190815260200160002060009054906101000a900460ff1662000886576040517f08c379a00000000000000000000000000000000000000000000000000000000081526004016200087d906200122f565b60405180910390fd5b600260008373ffffffffffffffffffffffffffffffffffffffff1673ffffffffffffffffffffffffffffffffffffffff16815260200190815260200160002060009054906101000a900473ffffffffffffffffffffffffffffffffffffffff169050919050565b81816012606433604051620009029062000b5f565b620009129594939291906200132f565b604051809103906000f0801580156200092f573d6000803e3d6000fd5b50600160006101000a81548173ffffffffffffffffffffffffffffffffffffffff021916908373ffffffffffffffffffffffffffffffffffffffff1602179055506000600160009054906101000a900473ffffffffffffffffffffffffffffffffffffffff1690506000819080600181540180825580915050600190039060005260206000200160009091909190916101000a81548173ffffffffffffffffffffffffffffffffffffffff021916908373ffffffffffffffffffffffffffffffffffffffff16021790555068056bc75e2d63100000600360003373ffffffffffffffffffffffffffffffffffffffff1673ffffffffffffffffffffffffffffffffffffffff16815260200190815260200160002060008373ffffffffffffffffffffffffffffffffffffffff1673ffffffffffffffffffffffffffffffffffffffff1681526020019081526020016000208190555080600260003373ffffffffffffffffffffffffffffffffffffffff1673ffffffffffffffffffffffffffffffffffffffff16815260200190815260200160002060006101000a81548173ffffffffffffffffffffffffffffffffffffffff021916908373ffffffffffffffffffffffffffffffffffffffff1602179055506001600760008373ffffffffffffffffffffffffffffffffffffffff1673ffffffffffffffffffffffffffffffffffffffff16815260200190815260200160002060006101000a81548160ff021916908315150217905550505050565b611dba806200139b83390190565b60008115159050919050565b62000b848162000b6d565b82525050565b600060208201905062000ba1600083018462000b79565b92915050565b6000604051905090565b600080fd5b600080fd5b600080fd5b600080fd5b6000601f19601f8301169050919050565b7f4e487b7100000000000000000000000000000000000000000000000000000000600052604160045260246000fd5b62000c108262000bc5565b810181811067ffffffffffffffff8211171562000c325762000c3162000bd6565b5b80604052505050565b600062000c4762000ba7565b905062000c55828262000c05565b919050565b600067ffffffffffffffff82111562000c785762000c7762000bd6565b5b62000c838262000bc5565b9050602081019050919050565b82818337600083830152505050565b600062000cb662000cb08462000c5a565b62000c3b565b90508281526020810184848401111562000cd55762000cd462000bc0565b5b62000ce284828562000c90565b509392505050565b600082601f83011262000d025762000d0162000bbb565b5b813562000d1484826020860162000c9f565b91505092915050565b6000806040838503121562000d375762000d3662000bb1565b5b600083013567ffffffffffffffff81111562000d585762000d5762000bb6565b5b62000d668582860162000cea565b925050602083013567ffffffffffffffff81111562000d8a5762000d8962000bb6565b5b62000d988582860162000cea565b9150509250929050565b6000819050919050565b62000db78162000da2565b82525050565b600060208201905062000dd4600083018462000dac565b92915050565b600073ffffffffffffffffffffffffffffffffffffffff82169050919050565b600062000e078262000dda565b9050919050565b62000e198162000dfa565b811462000e2557600080fd5b50565b60008135905062000e398162000e0e565b92915050565b60006020828403121562000e585762000e5762000bb1565b5b600062000e688482850162000e28565b91505092915050565b62000e7c8162000dfa565b82525050565b600060208201905062000e99600083018462000e71565b92915050565b600082825260208201905092915050565b7f55736572206e6f74206c6f6767656420696e0000000000000000000000000000600082015250565b600062000ee860128362000e9f565b915062000ef58262000eb0565b602082019050919050565b6000602082019050818103600083015262000f1b8162000ed9565b9050919050565b7f5573657220457869737400000000000000000000000000000000000000000000600082015250565b600062000f5a600a8362000e9f565b915062000f678262000f22565b602082019050919050565b6000602082019050818103600083015262000f8d8162000f4b565b9050919050565b600081519050919050565b600081905092915050565b60005b8381101562000fca57808201518184015260208101905062000fad565b60008484015250505050565b600062000fe38262000f94565b62000fef818562000f9f565b93506200100181856020860162000faa565b80840191505092915050565b60006200101b828462000fd6565b915081905092915050565b7f4e616d6520457869737400000000000000000000000000000000000000000000600082015250565b60006200105e600a8362000e9f565b91506200106b8262001026565b602082019050919050565b6000602082019050818103600083015262001091816200104f565b9050919050565b7f53796d626f6c2045786973740000000000000000000000000000000000000000600082015250565b6000620010d0600c8362000e9f565b9150620010dd8262001098565b602082019050919050565b600060208201905081810360008301526200110381620010c1565b9050919050565b7f546f6b656e20646f6573206e6f74206578697374000000000000000000000000600082015250565b60006200114260148362000e9f565b91506200114f826200110a565b602082019050919050565b60006020820190508181036000830152620011758162001133565b9050919050565b620011878162000da2565b81146200119357600080fd5b50565b600081519050620011a7816200117c565b92915050565b600060208284031215620011c657620011c562000bb1565b5b6000620011d68482850162001196565b91505092915050565b7f5573657220646f6573206e6f7420657869737400000000000000000000000000600082015250565b60006200121760138362000e9f565b91506200122482620011df565b602082019050919050565b600060208201905081810360008301526200124a8162001208565b9050919050565b60006200125e8262000f94565b6200126a818562000e9f565b93506200127c81856020860162000faa565b620012878162000bc5565b840191505092915050565b6000819050919050565b600060ff82169050919050565b6000819050919050565b6000620012d4620012ce620012c88462001292565b620012a9565b6200129c565b9050919050565b620012e681620012b3565b82525050565b6000819050919050565b600062001317620013116200130b84620012ec565b620012a9565b62000da2565b9050919050565b6200132981620012f6565b82525050565b600060a08201905081810360008301526200134b818862001251565b9050818103602083015262001361818762001251565b9050620013726040830186620012db565b6200138160608301856200131e565b62001390608083018462000e71565b969550505050505056fe60806040523480156200001157600080fd5b5060405162001dba38038062001dba833981810160405281019062000037919062000482565b848481600390816200004a919062000789565b5080600490816200005c919062000789565b5050506200008f818460ff16600a620000769190620009f3565b8462000083919062000a44565b6200009a60201b60201c565b505050505062000b7b565b600073ffffffffffffffffffffffffffffffffffffffff168273ffffffffffffffffffffffffffffffffffffffff16036200010c576040517f08c379a0000000000000000000000000000000000000000000000000000000008152600401620001039062000af0565b60405180910390fd5b62000120600083836200020760201b60201c565b806002600082825462000134919062000b12565b92505081905550806000808473ffffffffffffffffffffffffffffffffffffffff1673ffffffffffffffffffffffffffffffffffffffff168152602001908152602001600020600082825401925050819055508173ffffffffffffffffffffffffffffffffffffffff16600073ffffffffffffffffffffffffffffffffffffffff167fddf252ad1be2c89b69c2b068fc378daa952ba7f163c4a11628f55a4df523b3ef83604051620001e7919062000b5e565b60405180910390a362000203600083836200020c60201b60201c565b5050565b505050565b505050565b6000604051905090565b600080fd5b600080fd5b600080fd5b600080fd5b6000601f19601f8301169050919050565b7f4e487b7100000000000000000000000000000000000000000000000000000000600052604160045260246000fd5b6200027a826200022f565b810181811067ffffffffffffffff821117156200029c576200029b62000240565b5b80604052505050565b6000620002b162000211565b9050620002bf82826200026f565b919050565b600067ffffffffffffffff821115620002e257620002e162000240565b5b620002ed826200022f565b9050602081019050919050565b60005b838110156200031a578082015181840152602081019050620002fd565b60008484015250505050565b60006200033d6200033784620002c4565b620002a5565b9050828152602081018484840111156200035c576200035b6200022a565b5b62000369848285620002fa565b509392505050565b600082601f83011262000389576200038862000225565b5b81516200039b84826020860162000326565b91505092915050565b600060ff82169050919050565b620003bc81620003a4565b8114620003c857600080fd5b50565b600081519050620003dc81620003b1565b92915050565b6000819050919050565b620003f781620003e2565b81146200040357600080fd5b50565b6000815190506200041781620003ec565b92915050565b600073ffffffffffffffffffffffffffffffffffffffff82169050919050565b60006200044a826200041d565b9050919050565b6200045c816200043d565b81146200046857600080fd5b50565b6000815190506200047c8162000451565b92915050565b600080600080600060a08688031215620004a157620004a06200021b565b5b600086015167ffffffffffffffff811115620004c257620004c162000220565b5b620004d08882890162000371565b955050602086015167ffffffffffffffff811115620004f457620004f362000220565b5b620005028882890162000371565b94505060406200051588828901620003cb565b9350506060620005288882890162000406565b92505060806200053b888289016200046b565b9150509295509295909350565b600081519050919050565b7f4e487b7100000000000000000000000000000000000000000000000000000000600052602260045260246000fd5b600060028204905060018216806200059b57607f821691505b602082108103620005b157620005b062000553565b5b50919050565b60008190508160005260206000209050919050565b60006020601f8301049050919050565b600082821b905092915050565b6000600883026200061b7fffffffffffffffffffffffffffffffffffffffffffffffffffffffffffffffff82620005dc565b620006278683620005dc565b95508019841693508086168417925050509392505050565b6000819050919050565b60006200066a620006646200065e84620003e2565b6200063f565b620003e2565b9050919050565b6000819050919050565b620006868362000649565b6200069e620006958262000671565b848454620005e9565b825550505050565b600090565b620006b5620006a6565b620006c28184846200067b565b505050565b5b81811015620006ea57620006de600082620006ab565b600181019050620006c8565b5050565b601f82111562000739576200070381620005b7565b6200070e84620005cc565b810160208510156200071e578190505b620007366200072d85620005cc565b830182620006c7565b50505b505050565b600082821c905092915050565b60006200075e600019846008026200073e565b1980831691505092915050565b60006200077983836200074b565b9150826002028217905092915050565b620007948262000548565b67ffffffffffffffff811115620007b057620007af62000240565b5b620007bc825462000582565b620007c9828285620006ee565b600060209050601f831160018114620008015760008415620007ec578287015190505b620007f885826200076b565b86555062000868565b601f1984166200081186620005b7565b60005b828110156200083b5784890151825560018201915060208501945060208101905062000814565b868310156200085b578489015162000857601f8916826200074b565b8355505b6001600288020188555050505b505050505050565b7f4e487b7100000000000000000000000000000000000000000000000000000000600052601160045260246000fd5b60008160011c9050919050565b6000808291508390505b6001851115620008fe57808604811115620008d657620008d562000870565b5b6001851615620008e65780820291505b8081029050620008f6856200089f565b9450620008b6565b94509492505050565b600082620009195760019050620009ec565b81620009295760009050620009ec565b81600181146200094257600281146200094d5762000983565b6001915050620009ec565b60ff84111562000962576200096162000870565b5b8360020a9150848211156200097c576200097b62000870565b5b50620009ec565b5060208310610133831016604e8410600b8410161715620009bd5782820a905083811115620009b757620009b662000870565b5b620009ec565b620009cc8484846001620008ac565b92509050818404811115620009e657620009e562000870565b5b81810290505b9392505050565b600062000a0082620003e2565b915062000a0d83620003e2565b925062000a3c7fffffffffffffffffffffffffffffffffffffffffffffffffffffffffffffffff848462000907565b905092915050565b600062000a5182620003e2565b915062000a5e83620003e2565b925082820262000a6e81620003e2565b9150828204841483151762000a885762000a8762000870565b5b5092915050565b600082825260208201905092915050565b7f45524332303a206d696e7420746f20746865207a65726f206164647265737300600082015250565b600062000ad8601f8362000a8f565b915062000ae58262000aa0565b602082019050919050565b6000602082019050818103600083015262000b0b8162000ac9565b9050919050565b600062000b1f82620003e2565b915062000b2c83620003e2565b925082820190508082111562000b475762000b4662000870565b5b92915050565b62000b5881620003e2565b82525050565b600060208201905062000b75600083018462000b4d565b92915050565b61122f8062000b8b6000396000f3fe608060405234801561001057600080fd5b50600436106100a95760003560e01c80633950935111610071578063395093511461016857806370a082311461019857806395d89b41146101c8578063a457c2d7146101e6578063a9059cbb14610216578063dd62ed3e14610246576100a9565b806306fdde03146100ae578063095ea7b3146100cc57806318160ddd146100fc57806323b872dd1461011a578063313ce5671461014a575b600080fd5b6100b6610276565b6040516100c39190610b0c565b60405180910390f35b6100e660048036038101906100e19190610bc7565b610308565b6040516100f39190610c22565b60405180910390f35b61010461032b565b6040516101119190610c4c565b60405180910390f35b610134600480360381019061012f9190610c67565b610335565b6040516101419190610c22565b60405180910390f35b610152610364565b60405161015f9190610cd6565b60405180910390f35b610182600480360381019061017d9190610bc7565b61036d565b60405161018f9190610c22565b60405180910390f35b6101b260048036038101906101ad9190610cf1565b6103a4565b6040516101bf9190610c4c565b60405180910390f35b6101d06103ec565b6040516101dd9190610b0c565b60405180910390f35b61020060048036038101906101fb9190610bc7565b61047e565b60405161020d9190610c22565b60405180910390f35b610230600480360381019061022b9190610bc7565b6104f5565b60405161023d9190610c22565b60405180910390f35b610260600480360381019061025b9190610d1e565b610518565b60405161026d9190610c4c565b60405180910390f35b60606003805461028590610d8d565b80601f01602080910402602001604051908101604052809291908181526020018280546102b190610d8d565b80156102fe5780601f106102d3576101008083540402835291602001916102fe565b820191906000526020600020905b8154815290600101906020018083116102e157829003601f168201915b5050505050905090565b60008061031361059f565b90506103208185856105a7565b600191505092915050565b6000600254905090565b60008061034061059f565b905061034d858285610770565b6103588585856107fc565b60019150509392505050565b60006012905090565b60008061037861059f565b905061039981858561038a8589610518565b6103949190610ded565b6105a7565b600191505092915050565b60008060008373ffffffffffffffffffffffffffffffffffffffff1673ffffffffffffffffffffffffffffffffffffffff168152602001908152602001600020549050919050565b6060600480546103fb90610d8d565b80601f016020809104026020016040519081016040528092919081815260200182805461042790610d8d565b80156104745780601f1061044957610100808354040283529160200191610474565b820191906000526020600020905b81548152906001019060200180831161045757829003601f168201915b5050505050905090565b60008061048961059f565b905060006104978286610518565b9050838110156104dc576040517f08c379a00000000000000000000000000000000000000000000000000000000081526004016104d390610e93565b60405180910390fd5b6104e982868684036105a7565b60019250505092915050565b60008061050061059f565b905061050d8185856107fc565b600191505092915050565b6000600160008473ffffffffffffffffffffffffffffffffffffffff1673ffffffffffffffffffffffffffffffffffffffff16815260200190815260200160002060008373ffffffffffffffffffffffffffffffffffffffff1673ffffffffffffffffffffffffffffffffffffffff16815260200190815260200160002054905092915050565b600033905090565b600073ffffffffffffffffffffffffffffffffffffffff168373ffffffffffffffffffffffffffffffffffffffff1603610616576040517f08c379a000000000000000000000000000000000000000000000000000000000815260040161060d90610f25565b60405180910390fd5b600073ffffffffffffffffffffffffffffffffffffffff168273ffffffffffffffffffffffffffffffffffffffff1603610685576040517f08c379a000000000000000000000000000000000000000000000000000000000815260040161067c90610fb7565b60405180910390fd5b80600160008573ffffffffffffffffffffffffffffffffffffffff1673ffffffffffffffffffffffffffffffffffffffff16815260200190815260200160002060008473ffffffffffffffffffffffffffffffffffffffff1673ffffffffffffffffffffffffffffffffffffffff168152602001908152602001600020819055508173ffffffffffffffffffffffffffffffffffffffff168373ffffffffffffffffffffffffffffffffffffffff167f8c5be1e5ebec7d5bd14f71427d1e84f3dd0314c0f7b2291e5b200ac8c7c3b925836040516107639190610c4c565b60405180910390a3505050565b600061077c8484610518565b90507fffffffffffffffffffffffffffffffffffffffffffffffffffffffffffffffff81146107f657818110156107e8576040517f08c379a00000000000000000000000000000000000000000000000000000000081526004016107df90611023565b60405180910390fd5b6107f584848484036105a7565b5b50505050565b600073ffffffffffffffffffffffffffffffffffffffff168373ffffffffffffffffffffffffffffffffffffffff160361086b576040517f08c379a0000000000000000000000000000000000000000000000000000000008152600401610862906110b5565b60405180910390fd5b600073ffffffffffffffffffffffffffffffffffffffff168273ffffffffffffffffffffffffffffffffffffffff16036108da576040517f08c379a00000000000000000000000000000000000000000000000000000000081526004016108d190611147565b60405180910390fd5b6108e5838383610a72565b60008060008573ffffffffffffffffffffffffffffffffffffffff1673ffffffffffffffffffffffffffffffffffffffff1681526020019081526020016000205490508181101561096b576040517f08c379a0000000000000000000000000000000000000000000000000000000008152600401610962906111d9565b60405180910390fd5b8181036000808673ffffffffffffffffffffffffffffffffffffffff1673ffffffffffffffffffffffffffffffffffffffff16815260200190815260200160002081905550816000808573ffffffffffffffffffffffffffffffffffffffff1673ffffffffffffffffffffffffffffffffffffffff168152602001908152602001600020600082825401925050819055508273ffffffffffffffffffffffffffffffffffffffff168473ffffffffffffffffffffffffffffffffffffffff167fddf252ad1be2c89b69c2b068fc378daa952ba7f163c4a11628f55a4df523b3ef84604051610a599190610c4c565b60405180910390a3610a6c848484610a77565b50505050565b505050565b505050565b600081519050919050565b600082825260208201905092915050565b60005b83811015610ab6578082015181840152602081019050610a9b565b60008484015250505050565b6000601f19601f8301169050919050565b6000610ade82610a7c565b610ae88185610a87565b9350610af8818560208601610a98565b610b0181610ac2565b840191505092915050565b60006020820190508181036000830152610b268184610ad3565b905092915050565b600080fd5b600073ffffffffffffffffffffffffffffffffffffffff82169050919050565b6000610b5e82610b33565b9050919050565b610b6e81610b53565b8114610b7957600080fd5b50565b600081359050610b8b81610b65565b92915050565b6000819050919050565b610ba481610b91565b8114610baf57600080fd5b50565b600081359050610bc181610b9b565b92915050565b60008060408385031215610bde57610bdd610b2e565b5b6000610bec85828601610b7c565b9250506020610bfd85828601610bb2565b9150509250929050565b60008115159050919050565b610c1c81610c07565b82525050565b6000602082019050610c376000830184610c13565b92915050565b610c4681610b91565b82525050565b6000602082019050610c616000830184610c3d565b92915050565b600080600060608486031215610c8057610c7f610b2e565b5b6000610c8e86828701610b7c565b9350506020610c9f86828701610b7c565b9250506040610cb086828701610bb2565b9150509250925092565b600060ff82169050919050565b610cd081610cba565b82525050565b6000602082019050610ceb6000830184610cc7565b92915050565b600060208284031215610d0757610d06610b2e565b5b6000610d1584828501610b7c565b91505092915050565b60008060408385031215610d3557610d34610b2e565b5b6000610d4385828601610b7c565b9250506020610d5485828601610b7c565b9150509250929050565b7f4e487b7100000000000000000000000000000000000000000000000000000000600052602260045260246000fd5b60006002820490506001821680610da557607f821691505b602082108103610db857610db7610d5e565b5b50919050565b7f4e487b7100000000000000000000000000000000000000000000000000000000600052601160045260246000fd5b6000610df882610b91565b9150610e0383610b91565b9250828201905080821115610e1b57610e1a610dbe565b5b92915050565b7f45524332303a2064656372656173656420616c6c6f77616e63652062656c6f7760008201527f207a65726f000000000000000000000000000000000000000000000000000000602082015250565b6000610e7d602583610a87565b9150610e8882610e21565b604082019050919050565b60006020820190508181036000830152610eac81610e70565b9050919050565b7f45524332303a20617070726f76652066726f6d20746865207a65726f2061646460008201527f7265737300000000000000000000000000000000000000000000000000000000602082015250565b6000610f0f602483610a87565b9150610f1a82610eb3565b604082019050919050565b60006020820190508181036000830152610f3e81610f02565b9050919050565b7f45524332303a20617070726f766520746f20746865207a65726f20616464726560008201527f7373000000000000000000000000000000000000000000000000000000000000602082015250565b6000610fa1602283610a87565b9150610fac82610f45565b604082019050919050565b60006020820190508181036000830152610fd081610f94565b9050919050565b7f45524332303a20696e73756666696369656e7420616c6c6f77616e6365000000600082015250565b600061100d601d83610a87565b915061101882610fd7565b602082019050919050565b6000602082019050818103600083015261103c81611000565b9050919050565b7f45524332303a207472616e736665722066726f6d20746865207a65726f20616460008201527f6472657373000000000000000000000000000000000000000000000000000000602082015250565b600061109f602583610a87565b91506110aa82611043565b604082019050919050565b600060208201905081810360008301526110ce81611092565b9050919050565b7f45524332303a207472616e7366657220746f20746865207a65726f206164647260008201527f6573730000000000000000000000000000000000000000000000000000000000602082015250565b6000611131602383610a87565b915061113c826110d5565b604082019050919050565b6000602082019050818103600083015261116081611124565b9050919050565b7f45524332303a207472616e7366657220616d6f756e742065786365656473206260008201527f616c616e63650000000000000000000000000000000000000000000000000000602082015250565b60006111c3602683610a87565b91506111ce82611167565b604082019050919050565b600060208201905081810360008301526111f2816111b6565b905091905056fea264697066735822122071bc0a115f6a265e16246a7ef0bc48de2c1a864579502850ce7273e9fc0bc94364736f6c63430008110033a2646970667358221220ecb49d7fb9389d2b33ecd26e3a18d8045c814dc7c2487207e2ee768d54d233df64736f6c63430008110033",
  "linkReferences": {},
  "deployedLinkReferences": {}
}