{
  "_format": "hh-sol-artifact-1",
  "contractName": "TokenFactory",
  "sourceName": "contracts/TokenFactory.sol",
  "abi": [
    {
      "anonymous": false,
      "inputs": [
        {
          "indexed": true,
          "internalType": "address",
          "name": "User",
          "type": "address"
        },
        {
          "indexed": true,
          "internalType": "address",
          "name": "Token",
          "type": "address"
        }
      ],
      "name": "UserRegistred",
      "type": "event"
    },
    {
      "inputs": [],
      "name": "checkUserLoggedIn",
      "outputs": [
        {
          "internalType": "bool",
          "name": "",
          "type": "bool"
        }
      ],
      "stateMutability": "view",
      "type": "function"
    },
    {
      "inputs": [],
      "name": "getMyTokenBalance",
      "outputs": [
        {
          "internalType": "uint256",
          "name": "",
          "type": "uint256"
        }
      ],
      "stateMutability": "view",
      "type": "function"
    },
    {
      "inputs": [
        {
          "internalType": "address",
          "name": "userAddress",
          "type": "address"
        }
      ],
      "name": "getTokenAddress",
      "outputs": [
        {
          "internalType": "address",
          "name": "",
          "type": "address"
        }
      ],
      "stateMutability": "view",
      "type": "function"
    },
    {
      "inputs": [
        {
          "internalType": "address",
          "name": "_tokenAddress",
          "type": "address"
        }
      ],
      "name": "getTokenBalance",
      "outputs": [
        {
          "internalType": "uint256",
          "name": "",
          "type": "uint256"
        }
      ],
      "stateMutability": "view",
      "type": "function"
    },
    {
      "inputs": [],
      "name": "login",
      "outputs": [
        {
          "internalType": "bool",
          "name": "",
          "type": "bool"
        }
      ],
      "stateMutability": "nonpayable",
      "type": "function"
    },
    {
      "inputs": [],
      "name": "logout",
      "outputs": [],
      "stateMutability": "nonpayable",
      "type": "function"
    },
    {
      "inputs": [
        {
          "internalType": "string",
          "name": "_tokenName",
          "type": "string"
        },
        {
          "internalType": "string",
          "name": "_tokenSymbol",
          "type": "string"
        }
      ],
      "name": "register",
      "outputs": [],
      "stateMutability": "nonpayable",
      "type": "function"
    },
    {
      "inputs": [
        {
          "internalType": "address",
          "name": "_with",
          "type": "address"
        },
        {
          "internalType": "uint256",
          "name": "_amount",
          "type": "uint256"
        }
      ],
      "name": "reverseSwap",
      "outputs": [],
      "stateMutability": "nonpayable",
      "type": "function"
    },
    {
      "inputs": [
        {
          "internalType": "address",
          "name": "_with",
          "type": "address"
        },
        {
          "internalType": "uint256",
          "name": "_amount",
          "type": "uint256"
        }
      ],
      "name": "swapTokens",
      "outputs": [],
      "stateMutability": "nonpayable",
      "type": "function"
    }
  ],
  "bytecode": "0x608060405234801561001057600080fd5b5061417e806100206000396000f3fe60806040523480156200001157600080fd5b5060043610620000a05760003560e01c8063a114398d116200006f578063a114398d1462000129578063a6b3abba1462000149578063b34e97e8146200016b578063b8d7b669146200018d578063f9fca2c014620001c357620000a0565b80631f3c99c314620000a557806334297cab14620000b15780633aecd0e314620000d35780633ffbd47f1462000109575b600080fd5b620000af620001e3565b005b620000bb62000322565b604051620000ca9190620017ce565b60405180910390f35b620000f16004803603810190620000eb919062001864565b62000376565b604051620001009190620018b1565b60405180910390f35b62000127600480360381019062000121919062001a30565b6200055a565b005b62000147600480360381019062000141919062001ae6565b62000871565b005b6200015362000c9e565b604051620001629190620018b1565b60405180910390f35b6200017562000e00565b604051620001849190620017ce565b60405180910390f35b620001ab6004803603810190620001a5919062001864565b62000ef0565b604051620001ba919062001b3e565b60405180910390f35b620001e16004803603810190620001db919062001ae6565b62000fe8565b005b600560003373ffffffffffffffffffffffffffffffffffffffff1673ffffffffffffffffffffffffffffffffffffffff16815260200190815260200160002060009054906101000a900460ff168015620002865750600960003373ffffffffffffffffffffffffffffffffffffffff1673ffffffffffffffffffffffffffffffffffffffff16815260200190815260200160002060009054906101000a900460ff165b620002c8576040517f08c379a0000000000000000000000000000000000000000000000000000000008152600401620002bf9062001bbc565b60405180910390fd5b6000600960003373ffffffffffffffffffffffffffffffffffffffff1673ffffffffffffffffffffffffffffffffffffffff16815260200190815260200160002060006101000a81548160ff021916908315150217905550565b6000600960003373ffffffffffffffffffffffffffffffffffffffff1673ffffffffffffffffffffffffffffffffffffffff16815260200190815260200160002060009054906101000a900460ff16905090565b6000600860008373ffffffffffffffffffffffffffffffffffffffff1673ffffffffffffffffffffffffffffffffffffffff16815260200190815260200160002060009054906101000a900460ff1662000407576040517f08c379a0000000000000000000000000000000000000000000000000000000008152600401620003fe9062001c2e565b60405180910390fd5b60008273ffffffffffffffffffffffffffffffffffffffff166370a08231336040518263ffffffff1660e01b815260040162000444919062001b3e565b602060405180830381865afa15801562000462573d6000803e3d6000fd5b505050506040513d601f19601f8201168201806040525081019062000488919062001c67565b90506000600460003373ffffffffffffffffffffffffffffffffffffffff1673ffffffffffffffffffffffffffffffffffffffff16815260200190815260200160002060008573ffffffffffffffffffffffffffffffffffffffff1673ffffffffffffffffffffffffffffffffffffffff16815260200190815260200160002054905080821462000550576040517f08c379a0000000000000000000000000000000000000000000000000000000008152600401620005479062001ce9565b60405180910390fd5b8192505050919050565b60001515600560003373ffffffffffffffffffffffffffffffffffffffff1673ffffffffffffffffffffffffffffffffffffffff16815260200190815260200160002060009054906101000a900460ff16151514620005f0576040517f08c379a0000000000000000000000000000000000000000000000000000000008152600401620005e79062001d5b565b60405180910390fd5b6000151560068360405162000606919062001df6565b908152602001604051809103902060009054906101000a900460ff1615151462000667576040517f08c379a00000000000000000000000000000000000000000000000000000000081526004016200065e9062001e5f565b60405180910390fd5b600015156007826040516200067d919062001df6565b908152602001604051809103902060009054906101000a900460ff16151514620006de576040517f08c379a0000000000000000000000000000000000000000000000000000000008152600401620006d59062001ed1565b60405180910390fd5b620006ea828262001491565b6001600560003373ffffffffffffffffffffffffffffffffffffffff1673ffffffffffffffffffffffffffffffffffffffff16815260200190815260200160002060006101000a81548160ff021916908315150217905550600160068360405162000756919062001df6565b908152602001604051809103902060006101000a81548160ff02191690831515021790555060016007826040516200078f919062001df6565b908152602001604051809103902060006101000a81548160ff021916908315150217905550600360003373ffffffffffffffffffffffffffffffffffffffff1673ffffffffffffffffffffffffffffffffffffffff16815260200190815260200160002060009054906101000a900473ffffffffffffffffffffffffffffffffffffffff1673ffffffffffffffffffffffffffffffffffffffff163373ffffffffffffffffffffffffffffffffffffffff167f768b1ae8c29ba4f506c0ae218e91db9830c281ed8fcf078ff6eb1258dbfe1a9c60405160405180910390a35050565b3373ffffffffffffffffffffffffffffffffffffffff168273ffffffffffffffffffffffffffffffffffffffff1603620008e2576040517f08c379a0000000000000000000000000000000000000000000000000000000008152600401620008d99062001f43565b60405180910390fd5b6032811062000928576040517f08c379a00000000000000000000000000000000000000000000000000000000081526004016200091f9062001fb5565b60405180910390fd5b670de0b6b3a7640000816200093e919062002006565b905060006200094d3362000ef0565b905060006200095c8462000ef0565b905082600460003373ffffffffffffffffffffffffffffffffffffffff1673ffffffffffffffffffffffffffffffffffffffff16815260200190815260200160002060008473ffffffffffffffffffffffffffffffffffffffff1673ffffffffffffffffffffffffffffffffffffffff1681526020019081526020016000206000828254620009ec919062002051565b9250508190555082600460008673ffffffffffffffffffffffffffffffffffffffff1673ffffffffffffffffffffffffffffffffffffffff16815260200190815260200160002060008373ffffffffffffffffffffffffffffffffffffffff1673ffffffffffffffffffffffffffffffffffffffff168152602001908152602001600020600082825462000a81919062002051565b9250508190555082600460003373ffffffffffffffffffffffffffffffffffffffff1673ffffffffffffffffffffffffffffffffffffffff16815260200190815260200160002060008373ffffffffffffffffffffffffffffffffffffffff1673ffffffffffffffffffffffffffffffffffffffff168152602001908152602001600020600082825462000b1691906200208c565b9250508190555082600460008673ffffffffffffffffffffffffffffffffffffffff1673ffffffffffffffffffffffffffffffffffffffff16815260200190815260200160002060008473ffffffffffffffffffffffffffffffffffffffff1673ffffffffffffffffffffffffffffffffffffffff168152602001908152602001600020600082825462000bab91906200208c565b925050819055508173ffffffffffffffffffffffffffffffffffffffff1663df791e503386866040518463ffffffff1660e01b815260040162000bf193929190620020c7565b600060405180830381600087803b15801562000c0c57600080fd5b505af115801562000c21573d6000803e3d6000fd5b505050508073ffffffffffffffffffffffffffffffffffffffff1663df791e508533866040518463ffffffff1660e01b815260040162000c6493929190620020c7565b600060405180830381600087803b15801562000c7f57600080fd5b505af115801562000c94573d6000803e3d6000fd5b5050505050505050565b60008062000cac3362000ef0565b905060008173ffffffffffffffffffffffffffffffffffffffff166370a08231336040518263ffffffff1660e01b815260040162000ceb919062001b3e565b602060405180830381865afa15801562000d09573d6000803e3d6000fd5b505050506040513d601f19601f8201168201806040525081019062000d2f919062001c67565b90506000600460003373ffffffffffffffffffffffffffffffffffffffff1673ffffffffffffffffffffffffffffffffffffffff16815260200190815260200160002060008473ffffffffffffffffffffffffffffffffffffffff1673ffffffffffffffffffffffffffffffffffffffff16815260200190815260200160002054905080821462000df7576040517f08c379a000000000000000000000000000000000000000000000000000000000815260040162000dee9062001ce9565b60405180910390fd5b81935050505090565b6000600560003373ffffffffffffffffffffffffffffffffffffffff1673ffffffffffffffffffffffffffffffffffffffff16815260200190815260200160002060009054906101000a900460ff1662000e91576040517f08c379a000000000000000000000000000000000000000000000000000000000815260040162000e889062002154565b60405180910390fd5b6001600960003373ffffffffffffffffffffffffffffffffffffffff1673ffffffffffffffffffffffffffffffffffffffff16815260200190815260200160002060006101000a81548160ff0219169083151502179055506001905090565b6000600560003373ffffffffffffffffffffffffffffffffffffffff1673ffffffffffffffffffffffffffffffffffffffff16815260200190815260200160002060009054906101000a900460ff1662000f81576040517f08c379a000000000000000000000000000000000000000000000000000000000815260040162000f789062002154565b60405180910390fd5b600360008373ffffffffffffffffffffffffffffffffffffffff1673ffffffffffffffffffffffffffffffffffffffff16815260200190815260200160002060009054906101000a900473ffffffffffffffffffffffffffffffffffffffff169050919050565b3373ffffffffffffffffffffffffffffffffffffffff168273ffffffffffffffffffffffffffffffffffffffff160362001059576040517f08c379a0000000000000000000000000000000000000000000000000000000008152600401620010509062001f43565b60405180910390fd5b670de0b6b3a7640000816200106f919062002006565b905060006200107e3362000ef0565b905060006200108d8462000ef0565b9050600460003373ffffffffffffffffffffffffffffffffffffffff1673ffffffffffffffffffffffffffffffffffffffff16815260200190815260200160002060008273ffffffffffffffffffffffffffffffffffffffff1673ffffffffffffffffffffffffffffffffffffffff1681526020019081526020016000205483111562001151576040517f08c379a00000000000000000000000000000000000000000000000000000000081526004016200114890620021ec565b60405180910390fd5b82600460003373ffffffffffffffffffffffffffffffffffffffff1673ffffffffffffffffffffffffffffffffffffffff16815260200190815260200160002060008473ffffffffffffffffffffffffffffffffffffffff1673ffffffffffffffffffffffffffffffffffffffff1681526020019081526020016000206000828254620011df91906200208c565b9250508190555082600460008673ffffffffffffffffffffffffffffffffffffffff1673ffffffffffffffffffffffffffffffffffffffff16815260200190815260200160002060008373ffffffffffffffffffffffffffffffffffffffff1673ffffffffffffffffffffffffffffffffffffffff16815260200190815260200160002060008282546200127491906200208c565b9250508190555082600460003373ffffffffffffffffffffffffffffffffffffffff1673ffffffffffffffffffffffffffffffffffffffff16815260200190815260200160002060008373ffffffffffffffffffffffffffffffffffffffff1673ffffffffffffffffffffffffffffffffffffffff168152602001908152602001600020600082825462001309919062002051565b9250508190555082600460008673ffffffffffffffffffffffffffffffffffffffff1673ffffffffffffffffffffffffffffffffffffffff16815260200190815260200160002060008473ffffffffffffffffffffffffffffffffffffffff1673ffffffffffffffffffffffffffffffffffffffff16815260200190815260200160002060008282546200139e919062002051565b925050819055508173ffffffffffffffffffffffffffffffffffffffff1663df791e508533866040518463ffffffff1660e01b8152600401620013e493929190620020c7565b600060405180830381600087803b158015620013ff57600080fd5b505af115801562001414573d6000803e3d6000fd5b505050508073ffffffffffffffffffffffffffffffffffffffff1663df791e503386866040518463ffffffff1660e01b81526004016200145793929190620020c7565b600060405180830381600087803b1580156200147257600080fd5b505af115801562001487573d6000803e3d6000fd5b5050505050505050565b81816012606433604051620014a690620017a3565b620014b6959493929190620022ec565b604051809103906000f080158015620014d3573d6000803e3d6000fd5b50600160006101000a81548173ffffffffffffffffffffffffffffffffffffffff021916908373ffffffffffffffffffffffffffffffffffffffff160217905550600160009054906101000a900473ffffffffffffffffffffffffffffffffffffffff16600260003373ffffffffffffffffffffffffffffffffffffffff1673ffffffffffffffffffffffffffffffffffffffff16815260200190815260200160002060006101000a81548173ffffffffffffffffffffffffffffffffffffffff021916908373ffffffffffffffffffffffffffffffffffffffff1602179055506000600160009054906101000a900473ffffffffffffffffffffffffffffffffffffffff1690506000819080600181540180825580915050600190039060005260206000200160009091909190916101000a81548173ffffffffffffffffffffffffffffffffffffffff021916908373ffffffffffffffffffffffffffffffffffffffff16021790555068056bc75e2d63100000600460003373ffffffffffffffffffffffffffffffffffffffff1673ffffffffffffffffffffffffffffffffffffffff16815260200190815260200160002060008373ffffffffffffffffffffffffffffffffffffffff1673ffffffffffffffffffffffffffffffffffffffff1681526020019081526020016000208190555080600360003373ffffffffffffffffffffffffffffffffffffffff1673ffffffffffffffffffffffffffffffffffffffff16815260200190815260200160002060006101000a81548173ffffffffffffffffffffffffffffffffffffffff021916908373ffffffffffffffffffffffffffffffffffffffff1602179055506001600860008373ffffffffffffffffffffffffffffffffffffffff1673ffffffffffffffffffffffffffffffffffffffff16815260200190815260200160002060006101000a81548160ff021916908315150217905550505050565b611df1806200235883390190565b60008115159050919050565b620017c881620017b1565b82525050565b6000602082019050620017e56000830184620017bd565b92915050565b6000604051905090565b600080fd5b600080fd5b600073ffffffffffffffffffffffffffffffffffffffff82169050919050565b60006200182c82620017ff565b9050919050565b6200183e816200181f565b81146200184a57600080fd5b50565b6000813590506200185e8162001833565b92915050565b6000602082840312156200187d576200187c620017f5565b5b60006200188d848285016200184d565b91505092915050565b6000819050919050565b620018ab8162001896565b82525050565b6000602082019050620018c86000830184620018a0565b92915050565b600080fd5b600080fd5b6000601f19601f8301169050919050565b7f4e487b7100000000000000000000000000000000000000000000000000000000600052604160045260246000fd5b6200192382620018d8565b810181811067ffffffffffffffff82111715620019455762001944620018e9565b5b80604052505050565b60006200195a620017eb565b905062001968828262001918565b919050565b600067ffffffffffffffff8211156200198b576200198a620018e9565b5b6200199682620018d8565b9050602081019050919050565b82818337600083830152505050565b6000620019c9620019c3846200196d565b6200194e565b905082815260208101848484011115620019e857620019e7620018d3565b5b620019f5848285620019a3565b509392505050565b600082601f83011262001a155762001a14620018ce565b5b813562001a27848260208601620019b2565b91505092915050565b6000806040838503121562001a4a5762001a49620017f5565b5b600083013567ffffffffffffffff81111562001a6b5762001a6a620017fa565b5b62001a7985828601620019fd565b925050602083013567ffffffffffffffff81111562001a9d5762001a9c620017fa565b5b62001aab85828601620019fd565b9150509250929050565b62001ac08162001896565b811462001acc57600080fd5b50565b60008135905062001ae08162001ab5565b92915050565b6000806040838503121562001b005762001aff620017f5565b5b600062001b10858286016200184d565b925050602062001b238582860162001acf565b9150509250929050565b62001b38816200181f565b82525050565b600060208201905062001b55600083018462001b2d565b92915050565b600082825260208201905092915050565b7f55736572206e6f74206c6f6767656420696e0000000000000000000000000000600082015250565b600062001ba460128362001b5b565b915062001bb18262001b6c565b602082019050919050565b6000602082019050818103600083015262001bd78162001b95565b9050919050565b7f546f6b656e20646f6573206e6f74206578697374000000000000000000000000600082015250565b600062001c1660148362001b5b565b915062001c238262001bde565b602082019050919050565b6000602082019050818103600083015262001c498162001c07565b9050919050565b60008151905062001c618162001ab5565b92915050565b60006020828403121562001c805762001c7f620017f5565b5b600062001c908482850162001c50565b91505092915050565b7f4163636f756e7473206d69736d61746368000000000000000000000000000000600082015250565b600062001cd160118362001b5b565b915062001cde8262001c99565b602082019050919050565b6000602082019050818103600083015262001d048162001cc2565b9050919050565b7f5573657220457869737400000000000000000000000000000000000000000000600082015250565b600062001d43600a8362001b5b565b915062001d508262001d0b565b602082019050919050565b6000602082019050818103600083015262001d768162001d34565b9050919050565b600081519050919050565b600081905092915050565b60005b8381101562001db357808201518184015260208101905062001d96565b60008484015250505050565b600062001dcc8262001d7d565b62001dd8818562001d88565b935062001dea81856020860162001d93565b80840191505092915050565b600062001e04828462001dbf565b915081905092915050565b7f4e616d6520457869737400000000000000000000000000000000000000000000600082015250565b600062001e47600a8362001b5b565b915062001e548262001e0f565b602082019050919050565b6000602082019050818103600083015262001e7a8162001e38565b9050919050565b7f53796d626f6c2045786973740000000000000000000000000000000000000000600082015250565b600062001eb9600c8362001b5b565b915062001ec68262001e81565b602082019050919050565b6000602082019050818103600083015262001eec8162001eaa565b9050919050565b7f43616e27742073776170207769746820796f757273656c660000000000000000600082015250565b600062001f2b60188362001b5b565b915062001f388262001ef3565b602082019050919050565b6000602082019050818103600083015262001f5e8162001f1c565b9050919050565b7f43616e206e6f742073776170206d6f7265207468616e20353020746f6b656e73600082015250565b600062001f9d60208362001b5b565b915062001faa8262001f65565b602082019050919050565b6000602082019050818103600083015262001fd08162001f8e565b9050919050565b7f4e487b7100000000000000000000000000000000000000000000000000000000600052601160045260246000fd5b6000620020138262001896565b9150620020208362001896565b9250828202620020308162001896565b915082820484148315176200204a576200204962001fd7565b5b5092915050565b60006200205e8262001896565b91506200206b8362001896565b925082820390508181111562002086576200208562001fd7565b5b92915050565b6000620020998262001896565b9150620020a68362001896565b9250828201905080821115620020c157620020c062001fd7565b5b92915050565b6000606082019050620020de600083018662001b2d565b620020ed602083018562001b2d565b620020fc6040830184620018a0565b949350505050565b7f5573657220646f6573206e6f7420657869737400000000000000000000000000600082015250565b60006200213c60138362001b5b565b9150620021498262002104565b602082019050919050565b600060208201905081810360008301526200216f816200212d565b9050919050565b7f43616e206e6f7420676574206261636b206d6f7265207468616e20737761707060008201527f6564206561726c69657200000000000000000000000000000000000000000000602082015250565b6000620021d4602a8362001b5b565b9150620021e18262002176565b604082019050919050565b600060208201905081810360008301526200220781620021c5565b9050919050565b60006200221b8262001d7d565b62002227818562001b5b565b93506200223981856020860162001d93565b6200224481620018d8565b840191505092915050565b6000819050919050565b600060ff82169050919050565b6000819050919050565b6000620022916200228b62002285846200224f565b62002266565b62002259565b9050919050565b620022a38162002270565b82525050565b6000819050919050565b6000620022d4620022ce620022c884620022a9565b62002266565b62001896565b9050919050565b620022e681620022b3565b82525050565b600060a08201905081810360008301526200230881886200220e565b905081810360208301526200231e81876200220e565b90506200232f604083018662002298565b6200233e6060830185620022db565b6200234d608083018462001b2d565b969550505050505056fe60806040523480156200001157600080fd5b5060405162001df138038062001df1833981810160405281019062000037919062000482565b848481600390816200004a919062000789565b5080600490816200005c919062000789565b5050506200008f818460ff16600a620000769190620009f3565b8462000083919062000a44565b6200009a60201b60201c565b505050505062000b7b565b600073ffffffffffffffffffffffffffffffffffffffff168273ffffffffffffffffffffffffffffffffffffffff16036200010c576040517f08c379a0000000000000000000000000000000000000000000000000000000008152600401620001039062000af0565b60405180910390fd5b62000120600083836200020760201b60201c565b806002600082825462000134919062000b12565b92505081905550806000808473ffffffffffffffffffffffffffffffffffffffff1673ffffffffffffffffffffffffffffffffffffffff168152602001908152602001600020600082825401925050819055508173ffffffffffffffffffffffffffffffffffffffff16600073ffffffffffffffffffffffffffffffffffffffff167fddf252ad1be2c89b69c2b068fc378daa952ba7f163c4a11628f55a4df523b3ef83604051620001e7919062000b5e565b60405180910390a362000203600083836200020c60201b60201c565b5050565b505050565b505050565b6000604051905090565b600080fd5b600080fd5b600080fd5b600080fd5b6000601f19601f8301169050919050565b7f4e487b7100000000000000000000000000000000000000000000000000000000600052604160045260246000fd5b6200027a826200022f565b810181811067ffffffffffffffff821117156200029c576200029b62000240565b5b80604052505050565b6000620002b162000211565b9050620002bf82826200026f565b919050565b600067ffffffffffffffff821115620002e257620002e162000240565b5b620002ed826200022f565b9050602081019050919050565b60005b838110156200031a578082015181840152602081019050620002fd565b60008484015250505050565b60006200033d6200033784620002c4565b620002a5565b9050828152602081018484840111156200035c576200035b6200022a565b5b62000369848285620002fa565b509392505050565b600082601f83011262000389576200038862000225565b5b81516200039b84826020860162000326565b91505092915050565b600060ff82169050919050565b620003bc81620003a4565b8114620003c857600080fd5b50565b600081519050620003dc81620003b1565b92915050565b6000819050919050565b620003f781620003e2565b81146200040357600080fd5b50565b6000815190506200041781620003ec565b92915050565b600073ffffffffffffffffffffffffffffffffffffffff82169050919050565b60006200044a826200041d565b9050919050565b6200045c816200043d565b81146200046857600080fd5b50565b6000815190506200047c8162000451565b92915050565b600080600080600060a08688031215620004a157620004a06200021b565b5b600086015167ffffffffffffffff811115620004c257620004c162000220565b5b620004d08882890162000371565b955050602086015167ffffffffffffffff811115620004f457620004f362000220565b5b620005028882890162000371565b94505060406200051588828901620003cb565b9350506060620005288882890162000406565b92505060806200053b888289016200046b565b9150509295509295909350565b600081519050919050565b7f4e487b7100000000000000000000000000000000000000000000000000000000600052602260045260246000fd5b600060028204905060018216806200059b57607f821691505b602082108103620005b157620005b062000553565b5b50919050565b60008190508160005260206000209050919050565b60006020601f8301049050919050565b600082821b905092915050565b6000600883026200061b7fffffffffffffffffffffffffffffffffffffffffffffffffffffffffffffffff82620005dc565b620006278683620005dc565b95508019841693508086168417925050509392505050565b6000819050919050565b60006200066a620006646200065e84620003e2565b6200063f565b620003e2565b9050919050565b6000819050919050565b620006868362000649565b6200069e620006958262000671565b848454620005e9565b825550505050565b600090565b620006b5620006a6565b620006c28184846200067b565b505050565b5b81811015620006ea57620006de600082620006ab565b600181019050620006c8565b5050565b601f82111562000739576200070381620005b7565b6200070e84620005cc565b810160208510156200071e578190505b620007366200072d85620005cc565b830182620006c7565b50505b505050565b600082821c905092915050565b60006200075e600019846008026200073e565b1980831691505092915050565b60006200077983836200074b565b9150826002028217905092915050565b620007948262000548565b67ffffffffffffffff811115620007b057620007af62000240565b5b620007bc825462000582565b620007c9828285620006ee565b600060209050601f831160018114620008015760008415620007ec578287015190505b620007f885826200076b565b86555062000868565b601f1984166200081186620005b7565b60005b828110156200083b5784890151825560018201915060208501945060208101905062000814565b868310156200085b578489015162000857601f8916826200074b565b8355505b6001600288020188555050505b505050505050565b7f4e487b7100000000000000000000000000000000000000000000000000000000600052601160045260246000fd5b60008160011c9050919050565b6000808291508390505b6001851115620008fe57808604811115620008d657620008d562000870565b5b6001851615620008e65780820291505b8081029050620008f6856200089f565b9450620008b6565b94509492505050565b600082620009195760019050620009ec565b81620009295760009050620009ec565b81600181146200094257600281146200094d5762000983565b6001915050620009ec565b60ff84111562000962576200096162000870565b5b8360020a9150848211156200097c576200097b62000870565b5b50620009ec565b5060208310610133831016604e8410600b8410161715620009bd5782820a905083811115620009b757620009b662000870565b5b620009ec565b620009cc8484846001620008ac565b92509050818404811115620009e657620009e562000870565b5b81810290505b9392505050565b600062000a0082620003e2565b915062000a0d83620003e2565b925062000a3c7fffffffffffffffffffffffffffffffffffffffffffffffffffffffffffffffff848462000907565b905092915050565b600062000a5182620003e2565b915062000a5e83620003e2565b925082820262000a6e81620003e2565b9150828204841483151762000a885762000a8762000870565b5b5092915050565b600082825260208201905092915050565b7f45524332303a206d696e7420746f20746865207a65726f206164647265737300600082015250565b600062000ad8601f8362000a8f565b915062000ae58262000aa0565b602082019050919050565b6000602082019050818103600083015262000b0b8162000ac9565b9050919050565b600062000b1f82620003e2565b915062000b2c83620003e2565b925082820190508082111562000b475762000b4662000870565b5b92915050565b62000b5881620003e2565b82525050565b600060208201905062000b75600083018462000b4d565b92915050565b6112668062000b8b6000396000f3fe608060405234801561001057600080fd5b50600436106100b45760003560e01c806370a082311161007157806370a08231146101a357806395d89b41146101d3578063a457c2d7146101f1578063a9059cbb14610221578063dd62ed3e14610251578063df791e5014610281576100b4565b806306fdde03146100b9578063095ea7b3146100d757806318160ddd1461010757806323b872dd14610125578063313ce567146101555780633950935114610173575b600080fd5b6100c161029d565b6040516100ce9190610b43565b60405180910390f35b6100f160048036038101906100ec9190610bfe565b61032f565b6040516100fe9190610c59565b60405180910390f35b61010f610352565b60405161011c9190610c83565b60405180910390f35b61013f600480360381019061013a9190610c9e565b61035c565b60405161014c9190610c59565b60405180910390f35b61015d61038b565b60405161016a9190610d0d565b60405180910390f35b61018d60048036038101906101889190610bfe565b610394565b60405161019a9190610c59565b60405180910390f35b6101bd60048036038101906101b89190610d28565b6103cb565b6040516101ca9190610c83565b60405180910390f35b6101db610413565b6040516101e89190610b43565b60405180910390f35b61020b60048036038101906102069190610bfe565b6104a5565b6040516102189190610c59565b60405180910390f35b61023b60048036038101906102369190610bfe565b61051c565b6040516102489190610c59565b60405180910390f35b61026b60048036038101906102669190610d55565b61053f565b6040516102789190610c83565b60405180910390f35b61029b60048036038101906102969190610c9e565b6105c6565b005b6060600380546102ac90610dc4565b80601f01602080910402602001604051908101604052809291908181526020018280546102d890610dc4565b80156103255780601f106102fa57610100808354040283529160200191610325565b820191906000526020600020905b81548152906001019060200180831161030857829003601f168201915b5050505050905090565b60008061033a6105d6565b90506103478185856105de565b600191505092915050565b6000600254905090565b6000806103676105d6565b90506103748582856107a7565b61037f858585610833565b60019150509392505050565b60006012905090565b60008061039f6105d6565b90506103c08185856103b1858961053f565b6103bb9190610e24565b6105de565b600191505092915050565b60008060008373ffffffffffffffffffffffffffffffffffffffff1673ffffffffffffffffffffffffffffffffffffffff168152602001908152602001600020549050919050565b60606004805461042290610dc4565b80601f016020809104026020016040519081016040528092919081815260200182805461044e90610dc4565b801561049b5780601f106104705761010080835404028352916020019161049b565b820191906000526020600020905b81548152906001019060200180831161047e57829003601f168201915b5050505050905090565b6000806104b06105d6565b905060006104be828661053f565b905083811015610503576040517f08c379a00000000000000000000000000000000000000000000000000000000081526004016104fa90610eca565b60405180910390fd5b61051082868684036105de565b60019250505092915050565b6000806105276105d6565b9050610534818585610833565b600191505092915050565b6000600160008473ffffffffffffffffffffffffffffffffffffffff1673ffffffffffffffffffffffffffffffffffffffff16815260200190815260200160002060008373ffffffffffffffffffffffffffffffffffffffff1673ffffffffffffffffffffffffffffffffffffffff16815260200190815260200160002054905092915050565b6105d1838383610833565b505050565b600033905090565b600073ffffffffffffffffffffffffffffffffffffffff168373ffffffffffffffffffffffffffffffffffffffff160361064d576040517f08c379a000000000000000000000000000000000000000000000000000000000815260040161064490610f5c565b60405180910390fd5b600073ffffffffffffffffffffffffffffffffffffffff168273ffffffffffffffffffffffffffffffffffffffff16036106bc576040517f08c379a00000000000000000000000000000000000000000000000000000000081526004016106b390610fee565b60405180910390fd5b80600160008573ffffffffffffffffffffffffffffffffffffffff1673ffffffffffffffffffffffffffffffffffffffff16815260200190815260200160002060008473ffffffffffffffffffffffffffffffffffffffff1673ffffffffffffffffffffffffffffffffffffffff168152602001908152602001600020819055508173ffffffffffffffffffffffffffffffffffffffff168373ffffffffffffffffffffffffffffffffffffffff167f8c5be1e5ebec7d5bd14f71427d1e84f3dd0314c0f7b2291e5b200ac8c7c3b9258360405161079a9190610c83565b60405180910390a3505050565b60006107b3848461053f565b90507fffffffffffffffffffffffffffffffffffffffffffffffffffffffffffffffff811461082d578181101561081f576040517f08c379a00000000000000000000000000000000000000000000000000000000081526004016108169061105a565b60405180910390fd5b61082c84848484036105de565b5b50505050565b600073ffffffffffffffffffffffffffffffffffffffff168373ffffffffffffffffffffffffffffffffffffffff16036108a2576040517f08c379a0000000000000000000000000000000000000000000000000000000008152600401610899906110ec565b60405180910390fd5b600073ffffffffffffffffffffffffffffffffffffffff168273ffffffffffffffffffffffffffffffffffffffff1603610911576040517f08c379a00000000000000000000000000000000000000000000000000000000081526004016109089061117e565b60405180910390fd5b61091c838383610aa9565b60008060008573ffffffffffffffffffffffffffffffffffffffff1673ffffffffffffffffffffffffffffffffffffffff168152602001908152602001600020549050818110156109a2576040517f08c379a000000000000000000000000000000000000000000000000000000000815260040161099990611210565b60405180910390fd5b8181036000808673ffffffffffffffffffffffffffffffffffffffff1673ffffffffffffffffffffffffffffffffffffffff16815260200190815260200160002081905550816000808573ffffffffffffffffffffffffffffffffffffffff1673ffffffffffffffffffffffffffffffffffffffff168152602001908152602001600020600082825401925050819055508273ffffffffffffffffffffffffffffffffffffffff168473ffffffffffffffffffffffffffffffffffffffff167fddf252ad1be2c89b69c2b068fc378daa952ba7f163c4a11628f55a4df523b3ef84604051610a909190610c83565b60405180910390a3610aa3848484610aae565b50505050565b505050565b505050565b600081519050919050565b600082825260208201905092915050565b60005b83811015610aed578082015181840152602081019050610ad2565b60008484015250505050565b6000601f19601f8301169050919050565b6000610b1582610ab3565b610b1f8185610abe565b9350610b2f818560208601610acf565b610b3881610af9565b840191505092915050565b60006020820190508181036000830152610b5d8184610b0a565b905092915050565b600080fd5b600073ffffffffffffffffffffffffffffffffffffffff82169050919050565b6000610b9582610b6a565b9050919050565b610ba581610b8a565b8114610bb057600080fd5b50565b600081359050610bc281610b9c565b92915050565b6000819050919050565b610bdb81610bc8565b8114610be657600080fd5b50565b600081359050610bf881610bd2565b92915050565b60008060408385031215610c1557610c14610b65565b5b6000610c2385828601610bb3565b9250506020610c3485828601610be9565b9150509250929050565b60008115159050919050565b610c5381610c3e565b82525050565b6000602082019050610c6e6000830184610c4a565b92915050565b610c7d81610bc8565b82525050565b6000602082019050610c986000830184610c74565b92915050565b600080600060608486031215610cb757610cb6610b65565b5b6000610cc586828701610bb3565b9350506020610cd686828701610bb3565b9250506040610ce786828701610be9565b9150509250925092565b600060ff82169050919050565b610d0781610cf1565b82525050565b6000602082019050610d226000830184610cfe565b92915050565b600060208284031215610d3e57610d3d610b65565b5b6000610d4c84828501610bb3565b91505092915050565b60008060408385031215610d6c57610d6b610b65565b5b6000610d7a85828601610bb3565b9250506020610d8b85828601610bb3565b9150509250929050565b7f4e487b7100000000000000000000000000000000000000000000000000000000600052602260045260246000fd5b60006002820490506001821680610ddc57607f821691505b602082108103610def57610dee610d95565b5b50919050565b7f4e487b7100000000000000000000000000000000000000000000000000000000600052601160045260246000fd5b6000610e2f82610bc8565b9150610e3a83610bc8565b9250828201905080821115610e5257610e51610df5565b5b92915050565b7f45524332303a2064656372656173656420616c6c6f77616e63652062656c6f7760008201527f207a65726f000000000000000000000000000000000000000000000000000000602082015250565b6000610eb4602583610abe565b9150610ebf82610e58565b604082019050919050565b60006020820190508181036000830152610ee381610ea7565b9050919050565b7f45524332303a20617070726f76652066726f6d20746865207a65726f2061646460008201527f7265737300000000000000000000000000000000000000000000000000000000602082015250565b6000610f46602483610abe565b9150610f5182610eea565b604082019050919050565b60006020820190508181036000830152610f7581610f39565b9050919050565b7f45524332303a20617070726f766520746f20746865207a65726f20616464726560008201527f7373000000000000000000000000000000000000000000000000000000000000602082015250565b6000610fd8602283610abe565b9150610fe382610f7c565b604082019050919050565b6000602082019050818103600083015261100781610fcb565b9050919050565b7f45524332303a20696e73756666696369656e7420616c6c6f77616e6365000000600082015250565b6000611044601d83610abe565b915061104f8261100e565b602082019050919050565b6000602082019050818103600083015261107381611037565b9050919050565b7f45524332303a207472616e736665722066726f6d20746865207a65726f20616460008201527f6472657373000000000000000000000000000000000000000000000000000000602082015250565b60006110d6602583610abe565b91506110e18261107a565b604082019050919050565b60006020820190508181036000830152611105816110c9565b9050919050565b7f45524332303a207472616e7366657220746f20746865207a65726f206164647260008201527f6573730000000000000000000000000000000000000000000000000000000000602082015250565b6000611168602383610abe565b91506111738261110c565b604082019050919050565b600060208201905081810360008301526111978161115b565b9050919050565b7f45524332303a207472616e7366657220616d6f756e742065786365656473206260008201527f616c616e63650000000000000000000000000000000000000000000000000000602082015250565b60006111fa602683610abe565b91506112058261119e565b604082019050919050565b60006020820190508181036000830152611229816111ed565b905091905056fea26469706673582212200cb7e5d8206f1c5b2e96b3c1297b1c4ce955ccfac0ab18fa30c4cad571fb8e1c64736f6c63430008110033a2646970667358221220e02ad82ab7b4d4375341806ae08d932d7c05416936cd4848304ea9af8078b2e764736f6c63430008110033",
  "linkReferences": {},
  "deployedLinkReferences": {}
}